:020000040000FA
:06000000020BBF02028E9C
:03002B0002088147
:030033000204EDD7
:030053000201BDEA
:03006B000204A5E7
:03007B000204D1AB
:1000830002021F0105030101FFBE2600000000F468
:100093002500000000FF000000FF0001011801001F
:1000A3000200030004000100020003000400010138
:1000B3000020FD000200007719000000000000D7B7
:1000C300190000000000005F19000000000000009C
:1000D300000000000000000000000000000000001D
:1000E300000612FFFF0201B81000000002B8100062
:1000F300000003B81000000004B810000000010065
:10010300000001151E1B1E0000211E000000000040
:1001130000000000000000000000000000000000DC
:1001230000000000000000102020202020202020BC
:1001330020202020202020200101040104000004AD
:10014300D180069B8002040104000004D180069B39
:100153008003040104000004D180069B8004040191
:1001630004000004D180069B800101010400F51006
:10017300000000C0D40100FFFF9E11C0D401006441
:10018300006400B801A0BB0D0060EA000002020099
:10019300F8FF070502070401051E02051E020A0AED
:1001A30001080803B80B02803E0102FEFFE8030AC0
:1001B300050001FFFF020A1401E0C0E074F112051B
:1001C30076A2AFE433F509D2AF85A708AFA1EF5507
:1001D30008FE74105E60061216E375A1EF74085EE4
:1001E30060081216E975A1F78024EFA2E092F0E50A
:1001F30008A2E082F05017906198E0F8900556E06D
:10020300C398A2D265D0335002E8F075A1FE751AE7
:1002130000E509A2E092AF7F020205D5C0E074F2C7
:10022300120576A2AFE433FED2AF9061A4E0F87575
:100233009B00E59158540860087591F712173180B7
:1002430023E59158541060087591EF121737801405
:10025300E591A2E092F0E8A2E082F05007E0C2E06C
:10026300F012188D9061A3E0F8E5E9585404600E8C
:1002730012186375E9FB906193E0A2E640F2751AE8
:1002830000EEA2E092AF7F010205D5C0E074F21246
:100293000576A2AFE433FED2AF9061A5E0F8E5BFE7
:1002A300585404600675BFFB1218A580D1C3E498A7
:1002B300F8E499F91202F18026C3E49AFAE49BFB6D
:1002C300E920E7E91202F1E498F8E499F922C3E49A
:1002D30098F8E499F91202F1E498F8E499F9C3E47F
:1002E3009AFAE49BFB22EB20E7CFE920E7E0B90091
:1002F30010BB0008E88AF084F8AAF022E4FBC8FAED
:1003030022EB70227B10C833C8C933C9335007C3EB
:100313009AC3DBF280069A50012ADBEAC833F4C899
:10032300C933F4C9FA2275F008E4C833C8C933C91C
:1003330033C99AC99B5004C92AC93BD5F0ECFBC801
:1003430033F4C8E4C9FA22080808EAC0E0EBC0E0C5
:1003530086F0E7A4FA180986F0E7A42AFA180986B2
:10036300F0E7A42AFA180986F0E7A42AFA1986F016
:10037300E7A4FBE5F02AFA190886F0E7A42BFBE5CE
:10038300F03AFA190886F0E7A42BFBE5F03AFA18DD
:10039300180986F0E7A4C5F02BFBE43AFA1908E73D
:1003A300C5F0C6A426F6E5F03BFBE43AFA1886F05E
:1003B300E7A4F6E5F00826F6E43B08F6E43A08F687
:1003C300D0E0FBD0E0FA22E4CFC0E0E4CEC0E0E42A
:1003D300CDC0E0E4CCC0E075F020E626F608E633B5
:1003E300F608E633F608E633F6181818EC33FCED96
:1003F30033FDEE33FEEF33FFC3EC9709ED9709EEC0
:100403009709EF97191919400FFFEC97FC09ED971E
:10041300FD09EE97FE191906D5F0BFECF709EDF7C4
:1004230009EEF709EFF7191919D0E0FCD0E0FDD078
:10043300E0FED0E0FF222518C582C0E0E51934FFB5
:10044300C583C0E0E518C3958224F810AF088583FF
:10045300198582188008858319858218D2AFCEF05A
:10046300A3E520F0A37808E608F0A3DEFAEFF0A3F3
:10047300E58124FAF8E608F0A3E608F0A3E608F01D
:10048300A30808E608F0A3E608F0A315811581D0B8
:10049300E0FED0E0F8158115811581E8C0E0EEC0DB
:1004A300E022C0E074F2120576A2AFE433FED2AFCD
:1004B3001213CBE589A2E150031215ED758900C231
:1004C300C5751A00EEA2E092AF7F010205D5C0E028
:1004D30074F2120576AEA8D2AF1213D1751A00EEDC
:1004E300A2E7E433F8EEA2E780DDC0E074F2120580
:1004F30076A2AFE433FED2AF1213D7E58BA2E0505E
:10050300031215ED758B00C2E880B6120C45B900D5
:1005130003020560E4900301784579108002F0A39B
:10052300D8FCD9FA781A9000867A01BA00028007BB
:10053300E493A3F608DAF97A457B129000877837BB
:1005430079028015E493A3AD82AE838A828B83F014
:10055300A3AA82AB838D828E83D8E9D9E77582EE15
:100563007583D2740412094A75827F7583237400DC
:1005730012094AC0D02518C582C0E0E51934FFC569
:1005830083C0E0E518C3958224F310AF088583196F
:100593008582188008858319858218D2AFC8F0A395
:1005A300E9F0A3EAF0A3EBF0A37908E709F0A3D8F5
:1005B300FAECF0A3EDF0A3EEF0A3EFF0A3D0E0F09C
:1005C300A3D0E0F0A3D0E0F0A3E520F0A3E5F0F0A2
:1005D300A322851983851882E0C0E0A3E0F9A3E094
:1005E300FAA3E0FBA37808E0F608A3DFFAE0FCA394
:1005F300E0FDA3E0FEA3E0FFA3E0C0E0A3E0C0E0D2
:10060300A3E0F5D0A3E0F520A3E0A3F5F010AF0835
:100613008583198582188008858319858218D2AF4E
:10062300D082D083D0E0F8D0E032E4730475F010C8
:100633008E218F22858226858325851882851983BD
:10064300E0CEA3E0CF852682852583EBC9EAC8EDFA
:10065300CBECCAC3E833C8E933C9EA33CAEB33CBBB
:10066300C3EA9EF524EB9FF523B35004AB23AA24DE
:10067300EC33CCED33CDD5F0DAAE21AF2222D083EB
:10068300D082ECC0E0EDC0E0E493A3FCE493A3FDCF
:10069300ED4C600D120759EC24FFFCED34FFFD8097
:1006A300EFE493A3FCE493A3FDED4C600D12082C3F
:1006B300EC24FFFCED34FFFD80EFD0E0FDD0E0FC47
:1006C300E493A3C0E0E493C0E022D083D082E9C0E6
:1006D300E0E493A3C386F0C5F095F0F908E493A38F
:1006E30086F0C5F095F0700BE493A3C3994005E938
:1006F300048002A3E475F002A42582F582E5F035B7
:1007030083F583D0E0F9E493A3C0E0E493C0E0224F
:10071300851983851882E0A3FEE0A3F5207808E01D
:10072300A3F608DFFAE0A3FFE0A3C0E0E0A3C0E084
:10073300E0A3C0E0E0A3C0E0E0A3C0E010AF088501
:1007430082188583198008858218858319D2AFD0D2
:1007530083D082020950C0E0C3E4939608740193E6
:100763009618400FE4936670080874019366187036
:10077300007019A3A3C3E49396087401939618A376
:10078300A3400DD0E0D0E0D0E00206BDA3A3A3A315
:10079300A3A3D0E022D083D082C5F0E493A3C5F015
:1007A300C395F0F5F0E493A3C395F04005E5F00499
:1007B3008001E475F002A42582F582E5F03583F526
:1007C30083E493A3C0E0E493C0E022740480047440
:1007D300028000CCC0E0EDC0E0E518C39CCCAD19AD
:1007E30050011D10AF068C188D1980068C188D19B9
:1007F300D2AF1208CCD0E0FDD0E0FC22740280001E
:10080300CCC0E0EDC0E0E518C39CCCAD1950011D90
:1008130010AF068C188D1980068C188D19D2AF1263
:1008230008AAD0E0FDD0E0FC22C0E0C0F088F0E4EC
:10083300936670080874019366187000A8F0A3A368
:10084300700BD0F0D0E0D0E0D0E00206BDA3A3D07F
:10085300F0D0E022D083D082CCC0E0E493A3600642
:1008630012090C1470FAE493A36006120A1C1470A4
:10087300FAD0E0FCE493A3C0E0E493C0E022C0E03C
:10088300C0D0E8C0E0E9C0E0A9A8D2AFC2C7751ADA
:1008930000E9A2E7E433F8E9A2E792AFD0E0F9D0A8
:1008A300E0F8D0D0D0E032CAC0E0E493A3C582CC54
:1008B300C582C583CDC583F0A3C582CCC582C5835C
:1008C300CDC583DAE5D0E0CA22CAC0E0E0A3C58281
:1008D300CCC582C583CDC583F0A3C582CCC582C5F3
:1008E30083CDC583DAE6D0E0CA22C008C3E096F51B
:1008F3000808A3E096420808A3E096420808A3E08C
:100903009645087001D3D00822C0E0E493A3D39C9A
:100913005010E493A3C39C400AD0E0D0E0D0E0029F
:100923000874A3A3A3D0E022700908080822601664
:10093300181818C6C333C608C633C608C633C60854
:10094300C633C6D5E0EA22C09FF59FE473D09F2249
:10095300D083D082C09FE493C0E0740193C0E0745D
:100963000293F59F2200C0D0251810AF08F5185048
:100973000C05198008F51850020519D2AFD0D02202
:100983002518F58210AF08F518400C15198008F5E5
:100993001840021519D2AF851983227404800A7492
:1009A300038006740280027401C0E0F40412098318
:1009B300D0E0120BFC22BB0102E722C082C0838974
:1009C300828A83BB0003E08002E493D083D0822237
:1009D3006016080808C6C313C618C613C618C6137C
:1009E300C618C613C6D5E0EA22C3E0C696F608A326
:1009F300E0C696F608A3E0C696F608A3E0C696F608
:100A0300222518F8E43519F9222518FAE43519FBDB
:100A1300222518FCE43519FD22C0E0E493A36C7091
:100A230009D0E0D0E0D0E0020874A3A3D0E02225EF
:100A33001810AF08F518400C15198008F518400276
:100A43001519D2AF22C3E09608A3E09608A3E09657
:100A530008A3E096A2D265D03322E066701008A303
:100A6300E066700A08A3E066700408A3E06622E764
:100A73006670100809E766700A0809E766700408DB
:100A830009E76622C3E096F008A3E096F008A3E026
:100A930096F008A3E096F022C3E697F60809E697D6
:100AA300F60809E697F60809E697F622C3E4939653
:100AB300087401939608740293960874039396221C
:100AC300E627F60809E637F60809E637F60809E6E1
:100AD30037F622E026F608A3E036F608A3E036F65A
:100AE30008A3E036F622700422600D18C6C333C68D
:100AF30008C633C6D5E0F41822E493F608740193CC
:100B0300F608740293F608740393F622E657F60880
:100B130009E657F60809E657F60809E657F622E00C
:100B230056F608A3E056F608A3E056F608A3E056E7
:100B3300F622E647F60809E647F60809E647F60807
:100B430009E647F622E026F008A3E036F008A3E022
:100B530036F008A3E036F022E056F008A3E056F0A2
:100B630008A3E056F008A3E056F022E4C396F60883
:100B7300E496F608E496F608E496F622600D08C6B5
:100B8300A2E713C618C613C6D5E0F322C6F4C608F7
:100B9300C6F4C608C6F4C608C6F4C622C3E7960858
:100BA30009E7960809E7960809E79622C3E096083D
:100BB300A3E09608A3E09608A3E0962275D00075FB
:100BC300813F7518017519030002050EE6F008A3AD
:100BD300E6F008A3E6F008A3E6F022600C08C6C31B
:100BE30013C618C613C6D5E0F422E0F608A3E0F650
:100BF30008A3E0F608A3E0F622CAC0E0E6F0A308E3
:100C0300DAFAD0E0FA22E8F0A3E9F0A3EAF0A3EBE2
:100C1300F022E0F8A3E0F9A3E0FAA3E0FB22E0FC72
:100C2300A3E0FDA3E0FEA3E0FF22EAF0A3EBF0A321
:100C3300ECF0A3EDF022E0FAA3E0FBA3E0FCA3E0D9
:100C4300FD22E5C754F84401F5C77901222518F5BB
:100C530082E43519F58322C2AF75D69F02000022C4
:100C63001209534BCA02120953F0CA02120953253F
:100C7300CB02120953C5CB0212095341CC0212090C
:100C830053882900120953BA2900120953EE290087
:100C9300120953A22B00120953762C00120953D5C3
:100CA3002C00120953EB2D00120953372E001209A1
:100CB30053D43000120953493300120953953400B9
:100CC3001209532D35001209533935001209538285
:100CD3003500120953B53500120953413600120984
:100CE30053533700120953943800120953933900B0
:100CF300120953BD3900120953283A0012095381CE
:100D03003A00120953F43A001209532A3D0012091A
:100D130053B03E001209539B3F00120953E94000B0
:100D2300120953214300120953184600120953278D
:100D33004600120953BB46001209536647001209C5
:100D430053A94700120953F24700120953424800BE
:100D5300120953AF48001209531B490012095337B4
:100D63004900120953664900120953A549001209A3
:100D7300538D4A001209533C4B00120953B34D00E3
:100D8300120953E54E00120953B44F0012095336AA
:100D93005000120953825400120953B1540012092E
:100DA300530C55001209533F55001209539A55002D
:100DB300120953B655001209531756001209536707
:100DC3005600120953165700120953D95700120936
:100DD30053A15800120953ED5A00120953795C00CC
:100DE300120953D05D00120953EC5E00120953EF50
:100DF3005E001209531E5F001209530D61001209B0
:100E030053D661001209531762001209536D630030
:100E1300120953E363001209531664001209537A4B
:100E230064001209539B6600120953FA6600120903
:100E330053D06700120953E46700120953F867009F
:100E4300120953256800120953556800120953F912
:100E53006900120953F66A00120953446B00120920
:100E6300536B6B00120953466C00120953EC6C0070
:100E7300120953726E00120953B96E0012095326F8
:100E83006F001209537B7000120953247100120979
:100E930053587100120953707100120953137200F1
:100EA3001209538F74001209533776001209535BEA
:100EB3007600120953797600120953457700120917
:100EC30053937A00120953818101120953B38101AB
:100ED300120953338601120953828601120953C83A
:100EE30086011209536B8701120953D08701120936
:100EF300531488011209537B8901120953A78A01EC
:100F0300120953A48E01120953238F011209534965
:100F13009001120953AC9001120953F8910112097F
:100F2300539094011209531D9501120953279501FA
:100F33001209534F9501120953179601120953AC25
:100F43009601120953D5960112095302970112090A
:100F530053579901120953249A01120953639A01B1
:100F6300120953E59A01120953909B01120953C2C6
:100F73009B011209530D9C01120953469C0112094E
:100F830053959C01120953F19C01120953739D015E
:100F9300120953D89D01120953509E01120953F9A6
:100FA3009F01120953F1A00112095332A201120940
:100FB3005386A501120953E2A7011209539BA80105
:100FC300120953E3A801120953C4AA01120953FFDA
:100FD300AA0112095308AB0112095311AB011209FB
:100FE300531CAB011209533BAB01120953EEAB0186
:100FF3001209534BAC0112095355AC011209535F4B
:10100300AC01120953ABAC01120953F3AC01120941
:1010130053F7AD0112095390AE0112095357AF01B3
:1010230012095381B001120953ACB101120953A241
:10103300B201120953BAB201120953EEB2011209F5
:10104300530CB30112095354B3011209538DB30165
:1010530012095344B40112095305B5011209537817
:10106300B501120953F4B50112095390B6011209DF
:1010730053B6B70112095372B80112095312B901D9
:10108300120953FFB90112095357BA011209531D2B
:10109300BB0112095340BB0112095355BC0112098C
:1010A30053A0BC01120953FCBC0112095364BD01D6
:1010B30012095388BD01120953B0BD01120953F53A
:1010C300BD0112095319BE011209539DBE01120934
:1010D3005386BF01120953CBBF01120953F4BF0159
:1010E30012095392C001120953FDC0011209532979
:1010F300C1011209530AC201120953B58A04120924
:1011030053ED8A041209530E8B04120953508B04B6
:10111300120953B48B04120953BE8B04120953CE24
:101123008B04120953058C04120953AE8F04120960
:10113300537691041209535A9304120953FC9304EE
:10114300120953869404120953FAC3011209535E18
:10115300C401120953BCC40112095307C501120982
:101163005322C50112095349C50112095366C5012A
:1011730012095372C50112095303C7011209531C03
:10118300C70112095398C701120953ABC7011209CA
:1011930053BBC7011209535FC801120953CBC901DD
:1011A300120953DECA011209537ECB011209538877
:1011B300CB0112095307CC0112095318CC011209B0
:1011C3005357CC0112095385CC0112095352CD0157
:1011D300120953A9CD01120953E2CD011209533863
:1011E300CE0112095356CE01120953A4CE0112099E
:1011F300536FCF01120953BDCF011209530AD00116
:101203001209538DD001120953B7D001120953EDBE
:10121300D001120953FCD0011209535BD101120909
:1012230053D3D10112095314D20112095364D201C9
:101233001209538FD201120953A9D201120953C3C0
:10124300D20112095398D301120953A2D3011209EF
:1012530053DDD301120953EDD301120953F6D30120
:1012630012095347D4011209535BD4011209537D68
:10127300D50112095394D501120953A9D5011209B5
:10128300533CD601120953B0D60112095355D70165
:1012930012095360D701120953C0D801120953DC54
:1012A300D80112095328D90112095396D9011209F9
:1012B30053C8D901120953E2D90112095324DA019F
:1012C30012095377DC011209530FDD01120953860A
:1012D300DD01120953E3DF01120953FBDF01120998
:1012E30053FEDF011209530AE0011209531EE00104
:1012F30012095326E0011209535DE001120953510B
:10130300E101120953DBE1011209535DE201120904
:1013130053DDE201120953B4E301120953D6E30189
:101323001209536FE401120953CCE401120953CF9C
:10133300E401120953FCE40112095311E5011209F6
:101343005380E501120953CCE601120953DFE7018B
:101353001209536AE8011209537DE9011209534244
:10136300EA0112095373EA0112095399EA011209B6
:1013730053A2EA01120953D1EA0112095381EB0185
:1013830012095331EC01120953A4EC01120953471A
:10139300ED01120953BAED01120953F9ED011209D6
:1013A3005342EE0112095377EE01120953539C0481
:1013B300120953649C04120953C49C041209537FF9
:1013C3009D04120953A29D04120953D99D041209C5
:1013D30053EE9D04120953A89E04120953B29E04AE
:1013E300120953009F04120953489F0412095378AA
:1013F3009F0412095328A0041209538BA004120955
:1014030053D1A0041209531DA10412095362A1046C
:1014130012095373D10312095397D1031209535974
:10142300D20312095336D60312095339D6031209CC
:10143300533CD603120953DED80312095321D903AF
:101443001209538CD903120953B9D903120953F65C
:10145300D90312095334DA031209530EDB031209B9
:1014630053E7DB03120953FBDB0312095345DC0388
:101473001209535CDD0312095377DD0312095392FA
:10148300DD03120953BCDD031209531ADE031209EB
:1014930053A0DE0312095387EB03120953F4EB0342
:1014A30012095340EC0312095392EC03120953122D
:1014B300ED031209530FEF031209533FF10312090E
:1014C3005372F403120953A1F403120953BFF40333
:1014D30012095329F50312095351F50312095384D1
:1014E300F503120953B9F5031209531BF603120945
:1014F30053D3DE031209534FDF031209537DDF0376
:10150300120953C2DF0312095323E1031209533FA4
:10151300E10312095375E103120953EEE1031209C2
:10152300533CE203120953CCE203120953A4E3032D
:10153300120953F5E3031209535AE403120953CD75
:10154300E40312095311E50312095369E503120970
:10155300538BE5031209531BE603120953ACE6034D
:10156300120953E4E6031209530DE7031209534E1C
:10157300E703120953EFE803120953D1E9031209F0
:1015830053ADEA03120953FEE4041209530FE504B1
:10159300120953ADE504120953F2FF01120953E78F
:1015A3007F001209531CE4041209532CE4041209AA
:1015B3005344E404120953F8E4041209532EE104DA
:1015C300120953B2E10412095318E204120953A495
:1015D300D604120953C6D6041209532CD704120990
:1015E300534BD70412095393D704120953ECD7046E
:1015F3001209532BD8041209532ED804120953D1BC
:10160300DE04120953E6DE041209535ADF041209F9
:101613005374DF041209538BDF041209539EDF0452
:10162300120953B6DF04120953CBDF04120953D254
:10163300B904120953E0B90412095359BA0412093F
:10164300532EBB0412095300BD0412095365BD0494
:10165300120953B8BD04120953F87F00120953E16C
:10166300D00412095319D10412095367D204120981
:1016730053EBD204120953B17A00120953DD7A00F5
:10168300120953737D00120953B37D00120953EFFE
:101693007D00120953037E001209531C7E001209B8
:1016A300530D7F00120953BF7F00120953D37F00EC
:1016B30012095337D8041209535BD804120953741F
:1016C300D804120953B2D804120953E8D8041209F2
:1016D300531BD90412095325D90412095391D90470
:1016E30012095394D9041209539ED904120953AB16
:1016F300D9041209537CC7041209539FC704120962
:1017030053EAC70412095308C80412095323C8042F
:1017130012095389C80412095395C804120953F2D4
:10172300C80412095316C9041209538DC0021209C1
:1017330053E9C904120953FAC90412095388E80486
:10174300120953A0E804120953CCE804120953F810
:10175300A6041209535EA8041209536CA8041209C3
:101763005380A8041209539DA804120953B2A80474
:10177300120953C5A80412095347A904120953AD0A
:10178300A90412095336AA04120953AEAA04120972
:101793005387AB041209539DC902120953A6AB0424
:1017A300120953EFE70412095313E8041209533BD8
:1017B300E80412095363E804120953B0CE04120972
:1017C30053D7CE04120953F5CE041209536ACF043A
:1017D300120953AAC404120953C3C404120953DAE5
:1017E300C404120953E3C40412095301C5041209C2
:1017F300530BC50412095315C50412095328C50414
:10180300120953AEC50412095323C60412095351D6
:10181300C604120953A2C604120953EEC6041209E0
:101823005309C70412095313C70412095324C704E5
:1018330012095367C70412095399E904120953E4BF
:10184300E90412095366F60312095392F6031209C7
:1018530053B5F603120953C8F603120953E3F6030B
:1018630012095347F70312095375F7031209536912
:10187300FB03120953C0FC03120953F2FC031209C0
:101883005365FD03120953D9FE0312095301FF03E4
:1018930012095316FF0312095326FF031209536655
:1018A300FF03120953A8FF03120953B8FF031209D8
:1018B300530ADB041209531ADB041209533EDB04F7
:1018C30012095367DB0412095391DB04120953B560
:1018D300DB04120953CCDB04120953FADB041209AB
:1018E300531DDC041209538DE604120953D3E60495
:1018F3001209534DFC021209535DFC021209537B7A
:10190300FD02120953AFFD02120953D1FD02120960
:1019130053F9FD0212095312FE021209534EFE023D
:10192300120953B2FE02120953F7FE021209533C85
:10193300FF0212095369FF02120953A1FF021209A0
:101943005398DD04120953B6DD0412095318DE045B
:10195300120953B2DE0412095331E304120953008E
:10196300E00412095348E00412095355DC04120938
:101973005378DD04120953008004120953E68304EB
:10198300120953DB85041209530D8704120953E727
:101993008704120953768904120953438A041209EE
:1019A30053978A04120953E2D40412095303D5044A
:1019B3001209533DD60412095367D604120953344E
:1019C300EA0412095344EA041209534EEA041209C1
:1019D30053CFC303120953D2C303120953FAC803E3
:1019E30012095339CA03120953B0CB031209539195
:1019F300CC0312095370CD0312095371CE0312099C
:101A0300532FCF031209535FCF03120953EDD003B2
:101A1300120953B5D904120953C7D904120953DA69
:101A2300DA04120953DDDA04120953C7E504120973
:101A330053FDE50412095319E6041209535BE60446
:101A43001209536BE60412095375E6041209533560
:101A530095041209536F9504120953D8950412097A
:101A630053F79504120953109604120953B09604C0
:101A7300120953B996041209530A970412095333EE
:101A83009704120953409704120953B1970412099A
:101A9300533F98041209538D9804120953C39804B1
:101AA3001209532499041209534C9904120953C37C
:101AB30099041209531F9A04120953629A041209D2
:101AC300539F9A04120953B19A04120953C39A04F7
:101AD300120953E29A04120953EB9A04120953BEF2
:101AE3009B04120953FE9B04120953279C041209F9
:101AF30053D7AB041209531DAD0412095346AD0469
:101B030012095357AD0412095376AF0412095396C1
:101B1300AF0412095328CA041209535ECA041209F6
:101B230053ADCA0412095306CC04120953A6AF03DA
:101B3300120953D7B00312095313B103120953C83F
:101B4300B203120953F2B2031209536BB50312091C
:101B530053ABB50312095340B703120953DFB7035D
:101B630012095337B803120953BDB803120953F5C9
:101B7300B80312095337B903120953A4BA0312095C
:101B83005324BC0312095369BE0312095397BE03BE
:101B9300120953C3BE03120953CCBE0312095322C5
:101BA300BF03120953B2BF03120953F0C203120950
:101BB3005372C30312095341E70412095357E7044D
:101BC30012095361E704120953B7E704120953A238
:101BD300FF01120953D8B004120953EDB0041209DE
:101BE300539DB104120953DDB104120953F6B10434
:101BF30012095329B20412095376B204120953AAE3
:101C0300B204120953ECB204120953F3B4041209D7
:101C13005359B50412095331E20412095390E204F3
:101C2300120953CEE2041209530FE30412095300BD
:101C330080021209530C80021209536E80021209AA
:101C430053788002120953FD80021209533981022D
:101C5300120953FA8102120953648202120953FFD3
:101C630082021209537F83021209532D850212093E
:101C730053F686021209536B88021209531789021D
:101C8300120953CD8D02120953B98E02120953530F
:101C93008F02120953788F0212095314900212090A
:101CA300533290021209534F9002120953C3900208
:101CB300120953DF90021209530C91021209539433
:101CC3009202120953B59202120953389302120970
:101CD30053DE930212095325940212095397940277
:101CE3001209533695021209539B950212095306A2
:101CF3009602120953BC960212095327970212093E
:101D030053639702120953CB97021209532D990279
:101D1300120953EC9902120953839A02120953FED2
:101D23009B021209539B9C02120953009D02120944
:101D330053079F0212095326A00212095358A00207
:101D430012095339A20212095326A4021209534E4F
:101D5300A5021209539DCC0212095338CD02120970
:101D6300539DCD0212095397CE0212095316CF0287
:101D730012095357D002120953E5D002120953AA8C
:101D8300D10212095364D30212095367D402120910
:101D930053D8D4021209535ED5021209537BD502DC
:101DA3001209538AD602120953ABD702120953B64A
:101DB300D7021209532CDB0212095331DD02120937
:101DC300533BDD0212095395DD02120953E8DD028C
:101DD30012095369DE02120953FBDE021209531B77
:101DE300DF021209531AE6021209536FE8021209BD
:101DF30053F2E902120953C7EA02120953F0E90444
:101E03001209536DCC041209533CCD041209532318
:101E1300CE041209537DCE0412095391CE04120944
:101E230053ADCE041209530080031209535B8003A0
:101E3300120953E180031209533082031209537DBF
:101E430082031209533A830312095351830312097C
:101E530053A38303120953E68303120953F983033C
:101E6300120953528403120953C18403120953D92B
:101E730084031209538587031209531D880312092A
:101E8300535488031209538C8803120953CF8A03CE
:101E93001209531F8B03120953F98B03120953328F
:101EA3008C03120953518C031209539C8C0312099E
:101EB30053BC8C03120953578D03120953DF8D034F
:101EC300120953EA8D031209533A8E0312095395EB
:101ED3008E03120953D58E03120953EB8F03120994
:101EE30053619203120953979303120953DD93032A
:101EF300120953A59403120953EA9403120953EDEB
:101F03009403120953F79403120953139503120907
:101F130053979503120953D09503120953FC950364
:101F2300120953239603120953479603120953E2E6
:101F33009603120953F596031209530B97031209DB
:101F4300532D97031209535C97031209537C97038C
:101F5300120953B99703120953F09703120953F265
:101F630098031209532A9A03120953499A0312092F
:101F730053609A031209530DE9041209531EE9042D
:101F830012095355E90412095388A104120953C6CF
:101F9300A1041209535FA2041209536AA30412098C
:101FA30053B2A5041209532FA604120953E0EB02FE
:101FB30012095303EC02120953EEEC0212095337D0
:101FC300ED021209539AED02120953EEED021209C2
:101FD300533FEE02120953B5EE0212095337EF02D3
:101FE300120953AFEF02120953F5EF021209531707
:101FF300F4021209537CF602120953AFF6021209D6
:102003005379F70212095357F802120953BBF90225
:1020130012095345FA02120953E2EE011209538ED3
:10202300EF01120953FBEF0112095315F0011209D5
:102033005397F001120953D1F001120953D4F1015E
:1020430012095316F20112095389F201120953D9E5
:10205300F2011209533DF3011209536CF401120901
:102063005318F50112095374F5011209533CF70192
:10207300120953D8F70112095371F801120953D108
:10208300F80112095348F90112095385FA0112099B
:102093005331FC01120953C6FC0112095330FD01EF
:1020A30012095349FE01120953729A03120953DDAF
:1020B3009A03120953259B03120953699B031209BF
:1020C30053C49B03120953219C031209535C9C03C1
:1020D300120953E09C031209533A9D03120953A9B1
:1020E3009E031209532D9F03120953989F0312094C
:1020F30053B29F03120953C39F031209531DA00335
:1021030012095385A103120953A4A103120953EC25
:10211300A2031209536BA303120953A2A3031209C7
:10212300530EA403120953CDA403120953ABA60300
:10213300120953ABA703120953B6A803120953C8D4
:10214300A903120953F0AA03120953FEAA031209A1
:102153005303AC03120953A5AC03120953EBAC03AD
:1021630012095300AD0312095308AE03120953A910
:10217300AE0312095305AF03120953CBBD04120971
:102183005386BF0412095345C0041209539AC0046D
:1021930012095320C104120953A5C104120953C0E3
:1021A300C10412095304C2041209532AC2041209B6
:1021B3005351C20412095369C2041209530CC304D4
:1021C30012095321C30412095343C4041209534C83
:1021D300C40412095355C4041209535EC4041209FA
:1021E3005366B50412095364B90412095369B90457
:1021F3001209536BB9041209536FD3041209536FB5
:10220300EA0412095341C002120953D0BF02120952
:1022130053B4BF021209536BBF02120953F9BE0232
:10222300120953D5BE02120953B1BE02120953A6B5
:10223300BE0212095378BE0212095349BE021209A3
:10224300533FBE0212095336BE021209532DBE027A
:1022530012095323BE0212095313BE02120953FF7C
:10226300BD0212095334BA021209535AB8021209B1
:1022730053E9B702120953C8B602120953DFB40275
:10228300120953D6B402120953C9B402120953CC2A
:10229300B30212095348C902120953A7B302120920
:1022A3005303C902120953D0C702120953A8C70224
:1022B30012095353C702120953C7C402120953FF29
:1022C300C30212095360C302120953B7B2021209BF
:1022D300534DB202120953B4B10212095342B1026F
:1022E30012095395C10212095331B102120953A0C5
:1022F300B00212095367B002120953DFAF02120989
:102303005314C10212095393AF0212095397AB043A
:10231300120953C6AE021209534AAE02120953A25E
:10232300AD02120953FBAC021209539DAC02120910
:102333005372AC0212095323AC02120953E5AB02E8
:10234300120953C3AB02120953A0AB0212095387FC
:10235300AB021209533FAB0212095389AA021209B5
:1023630053FDA90212095391A902120953D6C002BF
:102373001209533AA902120953DCC9040000008070
:10238300FB870001007613350004003C132500028F
:1023930000401326000200421327000200441328C2
:1023A3000001004E13290001004F13840004005064
:1023B300138600010054132A00010055132B00015A
:1023C3000056132C0001005A132D0008001E122E74
:1023D3000001005B132F0001005C13300001005D5E
:1023E30013310001005E1332000100261233000195
:1023F300002712340001005F133600010028123851
:1024030000010060133900010059138300020074B6
:1024130013630001003912640001005713650001C2
:102423000058136D0001003A12710008001612667D
:1024330000010073134300010064134400020065AC
:1024430013450001006713460002006813470008A4
:10245300003112480001006A134B0001006B1304A2
:102463000001007713A10001007A133700010079FE
:10247300138800010078133C00010029123D00017C
:10248300006113490002006C13670001003B124D09
:102493000002006E134E00010070134F0002007122
:1024A300133E0001003012510001002A12520001B4
:1024B300006213530001006313540001002B120048
:1024C3000000000000000136360101000102010096
:1024D30001030100010401060605020000070100D3
:1024E300340801000F090401010D0100FF0E08006B
:1024F3000017020000190100FF1A0100011B01006F
:10250300FE1C0100081D0200001F01000120010044
:1025130001210200002301000F2402000026010014
:102523000127010008280200FF2A0100072B0102EE
:10253300402C0100002D0100012E0100012F01009C
:10254300FF30010B1D310800003A0100083B010078
:102553000F3C0100013D0100FF3E04000042040066
:1025630000460400004A0400004E04000052040028
:1025730000560400005A0400000000030020017EFE
:10258300810000000020017F810000040042013827
:10259300800000050042015A800000060042014904
:1025A300800000070020018081000010004203E842
:1025B30012000011002003C710000012002003F9CD
:1025C30012030000002103C810060000001001CA16
:1025D30010070000003001B910070010003003A6F7
:1025E30012000000000000000000000000000000D6
:1025F300000103710301030103010301030103222A
:10260300030203010310030003000300030003009C
:102613000300030003420300032403060300030033
:1026230003040312032503230325032303040304E1
:102633000300030003000344030003000323030018
:102643000365032100350381030003050300030031
:102653000300030003250323030302710230016017
:1026630002110270020102020202028002100261E0
:10267300023A0041006302730272026202430200E3
:1026830002130238000002000204021202000200D8
:10269300020002000204020402370037003C024435
:1026A30002000239000002000265020002350281C5
:1026B300020002050282028302000203007100305D
:1026C30001600011007000310220035004800010EB
:1026D3000061000000140063007300720062004395
:1026E30000000013000600000000000400120000B8
:1026F3000000000000000004000400370037003C25
:1027030002440000000000000000006500000035E6
:10271300008100000005000000830000000101713A
:1027230001010101011101010131010101010180D7
:1027330001100161013B0014006301730172016226
:102743000143010001130106013D0135000401129B
:102753000100010001000100010401040133013300
:10276300013C014401320136000001000165010012
:102773000135008101000105018201830100013659
:10278300000100060000000F000000000000000030
:10279300000000000003FFFF00000403FFFF000030
:1027A300FFFF0FF4010005C4040320000100000B28
:1027B300000000000000000003010F000000000003
:1027C3000000000000000000000000000000000006
:1027D30000000000000000000000000000011D3D9B
:1027E3001D071D4D1C0D1D431D0D1D4F1D131D4D9F
:1027F3001C0D1D431D191D4D1C1F1D4D1C251D4D5D
:102803001C2B1D4D1C311D4D1C371D4D1C00000084
:1028130000000000000000000000000000000000B5
:1028230000000000000000000000000000000000A5
:102833000000000000000000000A00000002000089
:102843000004000000080000001000000020000049
:1028530000400000008000000000010000000200B2
:102863000000040000000800000010000000200029
:102873000000400000010055200200CB1F0300D1DF
:102883001F0400D71F0500DD1F0600E91F1100010B
:1028930020140007201500FB1FFFFF000007ECFDBD
:1028A300FDFDECDCDCCCBCACAC9C9C8C7C7C6C6C13
:1028B3005C5C5C4C4C3C3C2C2C1C1C03EAF5E5D5C5
:1028C300D5C5B5A5959585857575656555554545F5
:1028D300353525251515050A390F02090F051B0F77
:1028E300070F0F0CF10E0DFD0EFF000000160F0079
:1028F300000B150B020002220F3300000E5A69670A
:10290300426565416C6C69616E636530390103052D
:1029130007090B0D0F00020406080A0C0D303017CF
:10292300181921301B1D1F30303016181920231A97
:102933001C1E300C0E020B040B0A0708000F0003C9
:102943004A49434E181A25050200393D3F373C3C9E
:10295300362C442D000119161816161823030002ED
:10296300040201010101090200BE040AE803000098
:10297300E8030E0009081E1E0304040403100C05DB
:10298300080A28FF0CC082C0831214F1900322743A
:1029930099F0A3740CF0900324749FF0A3740CF0CB
:1029A30090032674A5F0A3740CF090032874ABF085
:1029B300A3740CF00261CF74F7120439E9FE90039B
:1029C30016E4F0EE900315F07C317D127A177B0349
:1029D300121C2990136AE090031FF09003207416D1
:1029E300F0A37412F0120CCF024FAF74F01204393B
:1029F3008A088B09EB54807003022B46900315E081
:102A0300F9121A8B8A0A8B0BAE0AAF0BEE4F7003C7
:102A1300022B3D1253A8707EEE241F1256EE641350
:102A23007002A3E070708E828F83A3A3E0F50EA3E0
:102A3300E0F50F900330125BD8750A00750B008028
:102A43000D12387D1263A2121B27AA0CAB0DEA4BA1
:102A530060448A828B83E0650E7004A3E0650F7087
:102A6300288A828B83A3A3A3A31253C6E50A450B2B
:102A73008A828B83A3A3A3A360C71248A7850A8274
:102A8300850B83A3A3A3A380BB8A0A8B0B8A828BA8
:102A930083125BD480B8EE242A1256EEF912675BD8
:102AA300900330123D16A3A3A3A3A3A3A3A3E0649F
:102AB3000270378A828B83125BD880078C828D8366
:102AC300123F7AEC4D60208C828D83E06A7003A301
:102AD300E06B70E88C828D83A3A3E06970DE9013B2
:102AE30070124D42F0804C120CE78E828F83E064AB
:102AF300017034EE2418122B9A1209AA1246A0125E
:102B030007CEEE2412122B9A1209AA124694120926
:102B1300A61237451207D2EE24171246A81214AF95
:102B2300740A120968800CE064027007EEFAEFFB86
:102B3300120E19EEFAEFFB121A79AA08E50964805E
:102B4300FB8051EA5402600C9012487401F0EA646D
:102B530002FA8040EA54046009120CD5E5086404C3
:102B63008029EA54086029120CE18B0BEA450B70AB
:102B730016900332E4F0A3F0A3F0A3F07A08FB90DD
:102B83000315E0F9121BF9E5086408FAAB098004A0
:102B93007A007B000240E41253B2F50A780A2274E9
:102BA300F41204398A088B098A828B83125BED1233
:102BB300459438F583E02409FA7B00121A738A0AD4
:102BC3008B0BAE0AAF0BEE4F7003022C668E828F17
:102BD300837402F0A3E4126ADFA3A3A3A3E8F0A320
:102BE300E912677FA3A3A3A3A3A3A3F0E508240388
:102BF300F8E43509125E901245943AF583123D0FBD
:102C0300F0EE2409FAE43FFB8E828F83A3A31263C1
:102C13002DF5838882E0A2E58E828F83A3A3A3A3ED
:102C2300A3500474018001E4F0E5082403F88882CA
:102C33008983125BD8EA1245883BF583122C69120B
:102C430009A2EA24101263C88E828F83125BD61204
:102C53001A4F7403120968EEFAEFFB900315E0F9BB
:102C6300121A7F02357DE0F508A3E0F509750A0025
:102C730078082274F21204398A088B09ECFAEDFB06
:102C8300740E120C50E0FC1215218A0C8B0DAE0C45
:102C9300AF0DEE4F6030AC08AD0912150FE9602699
:102CA300AC08AD09EEFAEFFB121515E970148E822C
:102CB3008F8312483BFAEFFB121509AA08AB0912DE
:102CC30015397900800279B480031209687F0602FE
:102CD300071374EE12043974F7120A328A0A8B0B43
:102CE300ECFEEDFF750CB3750D00750E008002054B
:102CF3000E90297DE493F8E50EC3984003022DE47A
:102D0300AA0E7B0012155D8A088B09EA450960DF6C
:102D13008A828B83A3A3A3A3A3E0250DF50DF8C398
:102D2300E50A98E50B940050C67C157D007900EE0A
:102D3300FAEFFB121A5B850882850983A3A3A3A379
:102D4300A3E0F8E50AC3950D2825E0F8E433F9E597
:102D53000828F582E50939F583123AE51263A212D0
:102D63000FC98A0A8B0BAC0AAD0BEEFAEFFB121CF0
:102D730029850882850983A3E06401700B1246A0AC
:102D83007401127622A3803DAC18AD1985088285A3
:102D93000983125BD6121545E9602D7408120C5095
:102DA300E0C0E01246A0D0E0F07408120C50E064DA
:102DB30003700CAC18AD19123D07121C298009854C
:102DC30018828519831263968508828509831240C8
:102DD300B7A3A3126AB6C0E01242D5D0E0F0750CD7
:102DE30000A90C7409026E5174F7120439E9FE8AC2
:102DF300828B83A3A3A3A3A3A3E0540860338A8293
:102E03008B83A3A3A3A3A3A3E0540260218A828B91
:102E130083A3A3A3A3A3A3A3A3A3E06406600F7444
:102E2300E96E600A74CD6E600574F06E7003120C67
:102E3300B7024FAF74E812043974F8120A327406F9
:102E4300120C5012547CECFEEDFF8917751500121D
:102E530030AD12152D8A0A8B0BEA450B7003023035
:102E630069EE2410123E9CA90A12221D8A128B13AA
:102E7300EA45137003023069EE2403F50CE43FF5D1
:102E83000DEE2406F508E43FF5097C00850882125F
:102E930045EC1215338A108B11850C82850D83E066
:102EA300851282851383A3A3A3125C6C851282858A
:102EB3001383A3A3A3A3E8F0A3E912374D851282DA
:102EC300851383A3A3A3A3A3A3A3125439851282B7
:102ED300851383A3A3A3A3A3A3F0EE1245883F12F4
:102EE30030BE1209A2EE1245943F1263CC851282C2
:102EF300851383A3125BD0121A4F740312096874EB
:102F030028120C501248A7E512124D3435131263E0
:102F1300A0742A120C50E0C0E0E512124588351364
:102F2300F583D0E0F07514007423120C50E0F5160D
:102F33007424120C50780C120BED022FF0851082C2
:102F4300851183125BD612154B850882850983A3ED
:102F5300EAF0A3EB1230CFA3A31267971230C9A2F2
:102F6300E6500F850882850983A3A3A3A3A3E0D218
:102F7300E1F0E51570668508828509831248A690FD
:102F83000366E0687003A3E06970518508828509D0
:102F930083A3A3A3123EAA75100078101209AA787E
:102FA3000C12099EE516F51078101209AA74261260
:102FB3000C501207D29003731207D27900741012C7
:102FC3000C50126777120E49740A12096885088239
:102FD300850983A3A3A3A3A3E04405F074012514E7
:102FE300FC1230AD1215338A108B110514E5104510
:102FF30011604EC3E514950AE4950B5044E514752E
:10300300F006A4F8A9F0E51228F8E51339F9E82445
:103013000FF508E439F509850882F583E4127A4847
:10302300E064016003022F4075150185088285095C
:103033008374011230CF125659A3E8F0A3E9022F8B
:1030430057AA12AB1312221778121209A6AD1674DF
:1030530024120C50E0FCA917EEFAEFFB120CB1742A
:1030630002120968803A8E828F83A3A3A3E0C0E093
:103073007403120C50D0E012374DC0E07404120CEC
:1030830050D0E0F0E50A450B70097405120C50743A
:10309300B980077405120C5074101263DD120E43CD
:1030A30074081209687F100207138E828F83125BE4
:1030B300DC8E828F83A3A3A3E0F922F5831253CA84
:1030C300750E00780C22A31267C0E022127A4CA37B
:1030D3002274E912043974F3120A328A0C8B0D89B3
:1030E300168C148D157424120C50125AD4AA08FB92
:1030F300122229E9F513AA08AB09122223E513705A
:103103000302331A750E00800F8E828F83A3A3A34D
:10311300A3A3E0D2E3F0050E1242DFE0F8E50EC30D
:10312300984003023311E5137003023311E50E7562
:10313300F006A4F8A9F0E50828F8E50939F9E82428
:103143000FFEE439FF8E828F83A3A3A3A3A3E0A280
:10315300E040C3750F00750A08750B00E5156003A1
:10316300750F207C087D007900AA18AB19121A5B31
:103173008E828F83E060379003B6E064017017E5B9
:103183000FD2E3F50F750B108E828F8312333C122F
:103193005DBB74FF8028430F0C750A0C8E828F83EE
:1031A300A3123332A3A3A3A3126E46A38010E51682
:1031B3006009E50FD2E6F50F750A0A12333CF07485
:1031C30002120C50E50FF0124592350DF583E0C065
:1031D300E07404120C50D0E0F07405120C5012632A
:1031E300DB120E1F740C120C50E060030232F474F5
:1031F30008120C50125C3A8E828F83A3A3A3A3F010
:103203007408120C501253EEE50AF0A3E50BF0120A
:10321300539EE5141230CA60119003B6E0C0E07407
:1032230008120C501253DED0E0F07408120C501246
:1032330042FFA3A3A312332D12539512547C126E93
:10324300B112332D12538CEAF0A3EB1269E3C0E001
:10325300125382D0E0126AA7C0E07408120C501215
:103263004ED4D0E0126690C0E07408120C50124E97
:10327300C8D0E0F07408120C50123332124EB71259
:10328300348512332D242CF582E439F58312547CD2
:10329300E50C124D14350DF583E0C0E0124EAFD0AE
:1032A300E0F07408120C50125BD8850C82850D83F4
:1032B3001233242428F582E43B1263A0E50C124563
:1032C30088350DF583126E6175120078101209A20C
:1032D300124592350D1263CCEA12660D3BF583124B
:1032E3005BD8121A4F7403120968AA18AB19120E8D
:1032F300258E828F83A3A3A3A3A3E0D2E0F0740C53
:10330300120C50E0600302310C15130231197900DD
:10331300AA08AB09120CBD740D1209687F0F0207CE
:1033230013A3A3A3A31248ABEA22125BE2E822127F
:1033330048AB850C82850D8322A31233412212638D
:1033430062E8F0A3E92274EE12043974E9120A3236
:103353008A088B09890A8A828B83A3A3A3A3A3A3C5
:10336300A3A3E0F912172B8A0C8B0DEA450D70030A
:10337300023414125AA0123F95E50A60030234196D
:103383007C04850882850983A3A3A3A3A3A3A3A382
:10339300E0F912236DEE4F60788E828F83A3A3A38F
:1033A3001248A67406120C50E8F0A3E91267A6F8B7
:1033B300A3E0F97408120C5012546FC0E074101299
:1033C3000C50D0E01234851248A6740E120C501221
:1033D30063A27411120C50E4125C5DC8241FF582C1
:1033E300E438F58312589DC413135403FC70027C14
:1033F300048E828F83E0F9780C1209A6742059FD9C
:10340300744059F97402120A0C120CB174021209B5
:10341300687417026E517C08850882850983A3A30B
:10342300A3A3A3A3A3A3E0F912236D8B0FEA450F74
:103433007003023398EE4F60D8E50AF50B780B1250
:1034430009AA850C82850D83A3A3A3A3A3A3A3E049
:10345300F50B780B1209AA8A828B83A3A3A3E0FB43
:103463008A82850F83123F7D8A82850F83E0FA8EDD
:10347300828F83A3A3E0F91214A9740212096802CC
:10348300339CF0850C82850D83A3A3A3A3A3A3A3DD
:10349300A32274F712043974FA120A32E9FE7C018A
:1034A3007D017F0080037D000F1256E3E0F8EFC338
:1034B300985028EF75F006A4F885F008A908EA28C3
:1034C300F8EB39F9E82414126085A2E050D8540CC3
:1034D30060D4E0A2E250D17C0080CD8A828B83A3AA
:1034E300A3A3A3A3A3E0703DEDA2E0400574016E86
:1034F30070338A828B83A3A3A3A3A3A37401124D66
:103503007CE0C0E07403120C50D0E0124D74E0C0B4
:10351300E07404120C50D0E0F07405120C50EC125D
:1035230063DD120E437406024FACC082C08379017F
:10353300120CBD0261CF74F4120439EA4B901248A5
:103543006022E4F08A088B09F50AF50B7808120962
:103553009E7A027B00900315E0F9121BED740412AE
:103563000968800F7401F07A027B00900315E0F97B
:10357300121BF9800574021209687F04020713C045
:1035830082C0839012A3E075F005A4FCADF079002E
:103593007AFD7B07121A5B7A00800A12372674FEC3
:1035A300F0A304F00A9012A3E0F8EAC39840EC02F7
:1035B30061CFC082C0837A007B0080037A010B90C5
:1035C30012A3E0F8EBC3985056EB75F005A4F8ACE2
:1035D300F0EC12373D7003A3E0F460E274FD28F8C9
:1035E300740739F9E82403F850010988828983E0D4
:1035F30024FFF0A3E034FF125EE5F9E84970BDEB68
:1036030075F005A4F8ECF974FD28F8740739F98806
:1036130082898374FEF0A30412398DE4F0809FEA5B
:10362300A2E050179081171207CE7A047B00900313
:1036330015E0F9121BED74041209680261CF74F7E7
:10364300120439EAFEEBFF9012A3E0700302371D68
:10365300EE24111256EE700302371D8E828F83A360
:10366300125BD0121041E96402600F8E828F83A334
:10367300A3A3A3A3E0700302371D7A0080271237A8
:1036830045123F7E123726E06C7003A3E06D701481
:10369300EE24121256EEFC74FF28F58274071260B2
:1036A300886C607B0A9012A3E0F8EAC39840CF7A53
:1036B3000080010A9012A3E0F8EAC3985061EA750A
:1036C300F005A4F8ABF0EB12373D7003A3E0F47000
:1036D300E274FD28F874073BF912374512663DEA98
:1036E300F0A3EB12374D88828983123986740C124A
:1036F30054397A04FB900315E0F9121BFFEA4B4C93
:103703004D70179081171207CE7A047B0090031532
:10371300E0F9121BED74041209687901024FAF79C5
:103723000080F9EA75F005A4F8A9F0123732227483
:10373300FD28F582740739F58322F9123732E064E4
:10374300FE22EE1267533FF58322F0126C2FE02224
:1037530074E812043974FC120A327402120C50E435
:10376300F0A3F0900330123F95851882851983E406
:10377300F0A3F0751401900360E0A2E35003023854
:1037830009121C118A088B098C0A8D0B8A0C8B0D6C
:103793008C0E8D0F900332780C1209EC123884785A
:1037A30010790C120B9F50077A017B000238788541
:1037B3000C14850D15850E16850F177814791012C4
:1037C30003CAA814A915901370E0C398E499500391
:1037D300E08001E8F514123884780C79101203CADA
:1037E300E4F512F51378087910120A9B90033278E6
:1037F30008120BCF801012387D1257D4FAEFFB1248
:103803001B27AE08AF09EE4F60638E828F83A3A39D
:10381300A3E0F8E514C3985029EE2403F582E43FAE
:10382300F583A814E0C398F060217402120C5012BF
:103833004A8412543EEEF0A3EF126695FEA3E0FF16
:1038430080C48E828F83A3A3A3E4F08E828F83121E
:103853005AD0851882851983125C588E828F83A370
:10386300A3A3A3609112635A125EAB808C740212FD
:103873000C50125BD874040230A51248AB9003308D
:103883002290136EE0F510A3E0F511E4F512F513A1
:103893002274F21204398A0A8B0BE9FE7A007B0048
:1038A300900330125AD4900330125C58601E0A857C
:1038B3000882850983A3A3A3A3125C58600E0AEAB6
:1038C30070010B88088909E8450970E390137112A8
:1038D30048A7C3EA98EB9940030239837A067B0031
:1038E300121B218A0C8B0DA80CA90DE84970030249
:1038F300398388828983E50AF0A3E50BF0EE888299
:103903008983A3A3F09013701260DFA3123986A3F7
:10391300E4F0A3F0900330124915600F8508828507
:103923000983A3A3A3A31263A2801F90033012638E
:10393300A2900360E0A2E34011121C11EAF8EBF934
:10394300ECFAEDFB900332120C09900360E0A2E362
:10395300502E7A087B00900315E0F9121BFFEA4B07
:103963004C4D701C90136E127486780812099E7A5F
:10397300087B00900315E0F9121BF3740412096825
:10398300022CD0A3A312398DA32212606AA3A3220F
:10399300C082C083E9901249F090032A7405F0A312
:1039A300740DF090032C7417F0A3740DF090032E94
:1039B3007429F0A3740DF00261CF74F7120439EA8D
:1039C300FEEBFF8908EE4F70031215999003361230
:1039D3005C58700890033680221248A78882898336
:1039E300A3A3A3A3A3A3A3A3A31249158882898393
:1039F300A3A3A3A3A3A3A3A3A370DEEEF0A3EF1239
:103A03003A14A3A3A3E4F0A3123A14E508F0024F77
:103A1300AF123A1822123A1C22F08E828F83A3A38C
:103A2300A3A3A3A32274F7120439900336800D8E47
:103A3300828F83A3A3A3A3A3A3A3A3A3123F95EE60
:103A43004F60348E828F83A3A3A3A3A3A3A3E069B0
:103A530070DD8E828F83A3A3A3A3E06A7003A3E028
:103A63006B70CC8E828F83A3A3A3A3A3A3E06C70FC
:103A7300BEEEFAEFFB80047A007B00024FAF74F7CF
:103A8300120439900336123F959003361233286897
:103A93007002EB69701EE0C82409F582E438F583EF
:103AA3001248A79003361263A2900336123F958003
:103AB30027123F88EE4F60208E828F83A3A3A3A398
:103AC300A3123324687002EB6970E68A828B83A3A6
:103AD300A3A3123AE51263A2121B27EEFAEFFB022D
:103AE3004FAFA3A3A3A3A3A31242F3A3A3A3A3A38D
:103AF3002274F012043974FA120A328A088B098A82
:103B0300828B83A3A3A3A3A3A3A3A3E06033640132
:103B1300602F8A828B83125BD8121041E970228551
:103B23000882850983A3A3A3A3A3A3A3A3E0640398
:103B330070147404120A14AA08AB09120DB9E970BF
:103B4300167902023CF08508828509831248A7741E
:103B530004120C501263A2126C2224341263151245
:103B63001B218A0A8B0BAE0AAF0BEE4F7003023C8C
:103B7300EE7C347D007900121A5B7402120A0C8504
:103B83000882850983A3A3A3A3A3A3A3A3A3E0F903
:103B93001214EB7402120C50E0C0E0123CFFD0E0B0
:103BA300F0EE242EF50AE43FF50B7403120C50E0FB
:103BB300850A82850B83F07901EEFAEFFB120CF391
:103BC30085080C85090D750E00780C1209A27C1E60
:103BD3007D00123D07121A4F7403120968EE243256
:103BE3001240AD2434F8E43FF98A828B831263A236
:103BF300E5082411F8E43509F9E8FCE9FD8C828D28
:103C0300831253FA243012639C1240A512773F1299
:103C130009A28C828D83123D16125BD8121A4F743F
:103C2300031209687404120C501242EF1263A2903B
:103C33000316123D0FA3A3A3F0900316E004F012A2
:103C43001C118E828F83125432242C1245C1750DA0
:103C530000850A82850B83E0780C120AE98A828B3D
:103C630083E50CF0123CF5E50C12543EE4F0E50854
:103C73002415126C26A2E074015007120C50740133
:103C83008004120C50E4F0EE2429125AC7AA18AB90
:103C9300191214D3E924FE850882850983F0EE24E2
:103CA30030F8E43FF9E8FCE9FD123D1E1202F1E8A9
:103CB3008E828F83A3A3A3A3A3A3A3A3F0123D1E6A
:103CC3001202F18B09EA4509600F8E828F83A3A349
:103CD300A3A3A3A3A3A3E004F0EE24201256EE446F
:103CE3000812460D121AB579008002791074060283
:103CF30040E1EE242BF582E43FF58322EE12660DBC
:103D03003FF58322EE240BFAE43FFB22126787A3DD
:103D1300A3A322123F828A828B83228C828D8312F9
:103D2300565DE0FA7B002274F4120439EAFEEBFFDD
:103D3300121C11125478901364E0F8EE242D1256DD
:103D4300EEC3984003023E8A1245CD7013EE242D34
:103D53001256EE041240D2E0C0E0123CF5D0E0F07F
:103D6300EE242A1256EEFC7900800109EE242E126D
:103D730056EEF8E9C3985026750801750900E978ED
:103D830008120AE91245CD550860E0E92CFC7508D4
:103D930001750900E97808120AE9E04508F0EE2404
:103DA30029123E9CEE2430F582E43FF583EC8AF041
:103DB300A4F8ABF0E42BF9E098F8A3E099F9C3E891
:103DC3009AE99400EE403424291256EEF81245CDB8
:103DD300602F123CFF123EAAA3E4F0EC704AEE24DB
:103DE300201256EE4420125473C0E012570CD0E058
:103DF300F0EE2432123E9CA3E08052123CF674FF94
:103E0300F0900356E0FA901367123EA1ABF075F001
:103E130064A4FAADF075F064EBA42DFB8E828F835E
:103E2300A3A3EAF0A3EB80B2EE24201256EE54DFF4
:103E3300125707ECF0FAEE2429F582E43FF58312DA
:103E43003EA1FAABF0EE12537C3F1245E3FB126A3C
:103E53008BEAF0A3EB1267AFC0E0EE2425F582E412
:103E63003FF583D0E012540AE81254399003381214
:103E73005C58600BECF912765712062DE970171295
:103E83003D07120D8F800F7BE91240C31214A3EE7E
:103E9300FAEFFB120CFF02357D1253B2FA22E0F562
:103EA30008EA8508F0A422126787A3F02274F412AB
:103EB3000439900336123F95121C118A0A8B0B7832
:103EC300FF79FF8020E0C39AFCA3E09BFDC3EC983D
:103ED300ED99500E8E828F83A3A3E0C39AF8A3E0DB
:103EE3009BF9123F88EE4F605C8E828F83125BD802
:103EF300E50AC39AFAE50B9BFB8E828F83123F7C04
:103F0300C3EA9CEB9D8E828F83A3A340B8A3A3A394
:103F1300A3E06402701AEE240B1245D06009124527
:103F2300A8125BD8121A79EEFAEFFB120CFF800786
:103F3300EEFAEFFB120D0B7A017B00901249E0F9C8
:103F4300121AB5802974FF68700374FF69601F88B3
:103F5300088909E4F50AF50B780812099E7A017BB2
:103F630000901249E0F9121BED740412096802353E
:103F73007DA3A3A3A3A3A3A3A3A3A3123F8222E08E
:103F8300FCA3E0FD228E828F83A3A3A3A3A3A3A3F9
:103F9300A3A3E0FEA3E0FF2274F01204398A088B86
:103FA30009ECFAEDFB890A7C01126C22F9120CF977
:103FB3008A0C8B0DAE0CAF0DEE4F70030240A3E5E0
:103FC3000A60030240A31240A51240BB68600302CB
:103FD30040A31240A5E0FAEE242E1256EEF8EA288A
:103FE300FAE43400FB8E828F83A3A3A3A3A3A3A32A
:103FF300A3E0F8EA98EB9400C365D033401CE508CE
:104003002414126C26F470127B001240C31214A302
:10401300EEFAEFFB120CFF0240A3E5082414126C26
:1040230026F47041EE242B1240AD242EF8E43FF920
:10403300E8FCE9FD7508FF7509008C828D83E07843
:1040430008120AE98A828B83E5081240D2E508F058
:104053008C828D831240BB28F0EE242DF582E43F41
:10406300F583E4801BE5082414F8E43509F9E0C07E
:10407300E01240D7D0E0125EE1C0E0123CF5D0E0A0
:10408300F0121C118E828F83125432123D001240A3
:10409300B7A31254397A01FB901249E0F9121AB509
:1040A300803FE50824131242E722F8E43FF9E8FAD7
:1040B300E9FBEE2212678722E0F8EE126070E0223D
:1040C300EE24221253B2FAEE24141253B2F922F060
:1040D3001240D722EE242CF582E43FF58322120905
:1040E300687F0802071374EC12043974FE120A3253
:1040F3008A0A8B0B8C0E8D0F89108A828B83A3A364
:10410300E0F91214C78A088B09AE08AF09EE4F70A5
:10411300077A007B000242CB7A127B00121B218AB2
:10412300088B09EA450970030242C77C127D0079B6
:1041330000121A5BAA18AB19850A82850B83A3A305
:10414300E0F91214EBE508240FF50CE43509F50D3D
:104153007401120C50E0850C82850D83F07902AA5C
:1041630008AB09120CF3850E82850F831242FF12EE
:10417300430D12458112678EF07512FF751300858A
:104183000C82850D83E07812120AE9126EB1E512F2
:10419300124EE0127655E0C0E01242DFD0E0F0129A
:1041A300459EF50CE508240D126EB5E50CF0E50A05
:1041B3001245B0850CF0A4A9F02427FAE439FB12C8
:1041C3001A738A0C8B0DAE0CAF0DE5081269A3EEC2
:1041D300F0A3EFF0EE4F70030242BA8E828F837426
:1041E3001A1254398E828F83A3A3F0A3124313129E
:1041F30042EF1263A2AC0EAD0F126A951214E5855D
:104203000A82850B83A3A3A3E0C0E012588FD0E0FA
:10421300F09003731253FA24101243071253E83534
:104223000B1253F81263BFE8F0A3E9124313A3A3DD
:10423300A3A31253FA241212639C850A82850B836B
:10424300A3A3E0C0E01242D5D0E0F0E50A124D345A
:104253001245BCE0C0E0126746D0E0F07416120CC1
:10426300501269BDC0E0126C10D0E01267A1C0E02B
:104273001269A9D0E01269C6C0E01269B3D0E01296
:1042830053FFE510F07418120C50120C15EE241A9B
:10429300F582E43FF583120C09EE2427F8E43FF995
:1042A300EE242212430712630D1245BCE0C0E01254
:1042B3006A9DD0E0F0800DAA08AB09120CFF7508C7
:1042C30000750900AA08AB0974021209687F0C0281
:1042D3000713EE2414F582E43FF583221242E3220E
:1042E300E508240BF582E43509F583221242F32213
:1042F300126B3F8E828F83A3A3A3A32212565DA3C7
:10430300A3A3A322F582E43FF583125469E50A22AD
:10431300F0850A82850B83A3A3A3A3A3A32274ED31
:104323001204398A0A8B0B8C108D118912750900BE
:10433300EA1245B0F508900338125C58600EA908DC
:1043430012765712062DE9600302457C7C02851024
:1043530082851183125BD8E50A124581E0F9120CBC
:10436300F98A0C8B0DAE0CAF0DEE4F7054850A829B
:10437300850B83A3E0A2E0400302457C7415120C75
:10438300501207CE7417120C501207D2A912AC1098
:10439300AD11AA0AAB0B120D1D74061209688A0C23
:1043A3008B0DAE0CAF0DEE4F700302457C8E828FEA
:1043B30083A3A3A3A3A3A3A3A3E50812460D121AE1
:1043C300B5A8088E828F83A3A3A3A3A3A3A3A3E06B
:1043D30024FFFAE434FFFBEA684B7003750901EE2E
:1043E300240B1245D07003024531850A82850B8365
:1043F300A3E0A2E050037508001245FAE5089AE429
:104403009BC365D033401CE0F8EE240E1256EE2811
:10441300F0750CFF750D00E8780C120AE9126201C1
:10442300E50CF0E50A124588350B1230BE1209A2DD
:10443300E50A124594350B1263CCEE240D1256EEA9
:10444300F50CE508850CF0A4FAABF01245A8125B55
:10445300F02422F582E4381245E3FB121A4F740369
:10446300120968750C011245D5780C120AE9125627
:10447300EB450CF0E509A2E05063EE240C1245C1B4
:104483001245D504780C120AE98A828B83E0450C25
:1044930012541D85080C850CF0A4F8A9F012459E52
:1044A300FCE82CFCE439FD1245A8125BF02420F54E
:1044B30082E438F583ECF0A3ED12544AF4701EEE57
:1044C300240BF50CE43FF50DEE1245943F1245EC39
:1044D300121A7F850C82850D8374FF8050121C1184
:1044E300125478900356E0FA901367E0F50CEA85CE
:1044F3000CF0A4FAABF0F8EBF9901364E0F50CE8D8
:10450300850CF0A4F8ACF0850CF0E9A42CF9EA28AA
:10451300F8EB39F9E875F064A4F8AAF075F064E9EA
:10452300A42AF98E828F83A3A3E8F0A3E9F0A80855
:104533001245FAEA24FF1AEB34FFFBEA687001EB39
:10454300600EEE240C1245D06006E509A2E0502966
:10455300E50A1245B5ECF01256EBC0E0E50A241467
:10456300F582E41245BCD0E0F0AC0AAD0B851082B5
:10457300851183125BD8120D7D7F0B020713124D39
:10458300141245BC2212458C22240EF582E422E546
:104593000C124598222410F582E422E50A1245986C
:1045A3001245BCE022EE1245983FF583221245B531
:1045B300E022124D0E1245BC22350BF58322F8E49E
:1045C3003FF9E8FAE9FB750CFF22EE242B1253B2F4
:1045D300F422750D001253AFF5F0E50884E5F022DF
:1045E300F583E02AFAA3E03B22F583125BE2850C14
:1045F30082850D83E0F922EE240E1253B2FC12538E
:10460300AFFAEC2AFAE43400FB22F07A017B009043
:104613001249E0F922C082C083901249E0F9121ACC
:104623007F0261CF74F41204398A088B09EB54803A
:10463300703BEAA2E05053120D11E5086401FAAB96
:1046430009804B8E828F83E06401701A1246A01298
:1046530007CE1246941209A6EE24121246A8120D92
:10466300237406120968EEFAEFFB121A79901249C5
:10467300E0F9121A8B8A0A8B0BAE0AAF0BEE4F705E
:10468300C2AA08E5096480FB80047A007B00023536
:104693007DEE240FF50AE43FF50B780A22EE124D66
:1046A3000E3FF583221253B2F9EE2402FCE43FFDE0
:1046B300EE2419FAE43FFB2274F1120439890A8AC1
:1046C300088B098A828B83125BD8120D3B8B0DEA10
:1046D300450D600579B8024763120D59E9F8902931
:1046E30080E493F9E8C399400479B280737A157B27
:1046F30000121B218A0C8B0DAE0CAF0DEE4F700414
:104703007910805C8E828F83E4F0A31267BBA3E5EC
:104713000A1269D61209A27C127D00EE2403FAE480
:104723003FFB121A4F740312096890033A125C5844
:1047330090033A7006EEF0A3EF801FE0FAA3E08047
:1047430003E8FAE9FB8A828B83125C5870F3EEF874
:10475300EFF98A828B83E8F0A3E9F0120D6B7900FD
:10476300025DC6C082C08390033A80048C828D832D
:10477300123F7EEC4D60288C828D83A3A3E0696099
:104783000574FF6970E68C828D83A3A3A3E06A702E
:1047930003A3E06B70D6EC2403FAE43DFB80047AB8
:1047A300007B000261CF74F7120439E9FD74FE6DDA
:1047B30070047C0180027C0090033A80096D7002D2
:1047C3007C0188828983125C58601F88828983A355
:1047D300A3A3E06A7003A3E06B70E7ECA2E0888216
:1047E3008983A3A3E050D6F9800279FE024FAF7408
:1047F300F6120439E9FF7E0090033AE0FCA3E0805F
:104803002D8C828D83A3A3E06F701E8C828D83A376
:1048130012483B25E0F8E433F9EA28F582EB39F551
:1048230083E508F0A3E509F00E125AE0FCE9FDEC7C
:104833004D70CEEEF9024DAEA3A3125AD8EE2274F8
:10484300F7120439E9FE90033A1248A77C007D0071
:10485300800BE8FCE9FD888289831248A7E8496058
:104863003D88828983A3A3E06E70E788828983A34E
:10487300A3A3E06A7003A3E06B70D7EC4D88828931
:10488300837008125BD890033A8003124FA412631B
:1048930034FAE9FB121B27120D6B790180027900B0
:1048A300024FAFA31248AB22126B3F2274F51204DE
:1048B30039890A90033A125BD8750800750900809C
:1048C30015125659E8F0A3E912544AFEA3E0FF1269
:1048D3001B27EEFAEFFBEA4B602B8A828B83A3A3A1
:1048E300E0650A7012E50845098A828B8370D2124B
:1048F30048A790033A80CD8A088B098A828B83E08C
:10490300FAA3E080D0120D6B80031209687F0302C3
:104913000713125BE2EA4B22C082C0837900900343
:104923003A800109125BD88A828B83E582458370C2
:10493300F20261CF74F6120439E4F508F509780838
:104943001209A6902980E49375F013A4A9F0124AE2
:1049530079121B997402120968E9FE6003120D654E
:1049630002483674F612043974FE120A328518822C
:10497300851983E4F0A3F0A818A919880889097890
:10498300081209A675080275090078081209A67CA1
:10499300007D007A427B00121BA574041209680291
:1049A3004DA974F512043974EB120A328518828505
:1049B3001983E4F0A3F090033AE0FEA3E0807E8E37
:1049C300828F83A3A3E0C0E07402120C50D0E012E4
:1049D3005DBBA982AA8389088A09750A007808122F
:1049E30009A27C127D007406120C50AA82AB8312BA
:1049F3001A4F74031209687402120A048808890999
:104A030078081209A675081375090078081209A613
:104A13007404120C50125AE475F013A4F8AAF0753A
:104A2300F013E9124A75121BA5740412096885185C
:104A330082851983124A84126B34E8FEE9FFEE4F34
:104A430060030249C2A818A91988088909780812BD
:104A530009A675080275090078081209A67C007D6D
:104A6300007A427B00121BA57404120968741502B4
:104A7300490DA42AF9E82402FCE439FD7A427B00BB
:104A830022E02401F0A3E034002274F41204397408
:104A9300EB120A327E007F00A818A9198808890939
:104AA30078081209A67508028E0978081209A67CEF
:104AB300007D007A427B00121BAB7404120968E983
:104AC300706E8E0880587402120A04880A890B7863
:104AD3000A1209A6750A13750B00780A1209A6E5CE
:104AE3000875F013A4F8AAF075F013E509124A75D6
:104AF300121BAB7404120968E9701B7403120C5087
:104B0300AA82AB837402120C50E0F9120D35E970DE
:104B1300050EEE70010F0508E508700205098518FA
:104B2300828519831248A7C3E50898E50999409639
:104B3300EEFAEFFB741502357A74F61204398C829F
:104B43008D83A3A3124D6AF0EA2417F582E43BF5A3
:104B530083E0C0E0124D3AD0E0F0124D1A1248A79C
:104B6300124D24124D6AA3F0A3F0EA241FF582E448
:104B73003BF583123F95EC1253E83DF583EEF0A32A
:104B8300EFF0EA1261FB3BF583124D4BA3A3A3A302
:104B9300A3A3EEF0A3EF125EE1FE8C828D83124D90
:104BA3009474035EFEC394034003024D01EE60055B
:104BB30074026E70798C828D83E0540CFE740C6EDB
:104BC3007003024C6EE0A2E4400D88828983E08C7E
:104BD300828D83A3124D9C74086E6003024C6E1287
:104BE3004D2C7401F08A828B83A3A3A3A3A3125D2C
:104BF300B570148C828D83E0440C124D74A3A31200
:104C03004D4BEEF0A3EFF08C828D83E0A2E4401EC7
:104C1300124D59124D85500109124D59A3A3124D3E
:104C23008550010988828983124D42124D948882EE
:104C33008983E0C0E0EC124D143DF583D0E0124DC2
:104C4300948C828D83E0A2E7507888828983E0FE8A
:104C53008C828D83124D9C74FC5E700C8C828D83D0
:104C6300A3E054036403701B024D01124D2CE4F0C6
:104C7300740C6E6003024BE8124D59124D87508736
:104C83000980848C828D83A3E054036038888289F1
:104C930083E0C0E0EC124D0E3DF583D0E0124D9D54
:104CA3008C828D83E054036402701A88828983E0C6
:104CB300C0E0EC2414F582E43DF583D0E0124D9D71
:104CC3008003A3E4F0EC1245883D1263A0EC2410AA
:104CD300FEE43DFF124D1AE0F5088E828F83E0C398
:104CE300982508F508F0EA2417126350C39508C005
:104CF300E0124D24D0E0125EE1C39508500A124D34
:104D030024E4F0124D3AE4F0024DAE2413F582E4AC
:104D1300222411F582E422EA241DF582E43BF58383
:104D230022EC1261FB3DF58322EC124D343DF583F9
:104D330022240CF582E422EC1245983DF58322E00F
:104D43008C828D83A3A3A322E0FEA3E0FF8C828D3C
:104D530083A3A3A3A32288828983E0F508A3E0FFAA
:104D6300E5088C828D8322E4F08C828D83A3A3A338
:104D730022124D7CA3A3A3A322F08A828B83A3A335
:104D8300A322A3A3A3A3A3A3F0A3EFF0E82402F811
:104D930022124DA4A882A98322A3124DA408A98399
:104DA3002212606AA32274021209687F02020713A7
:104DB30074F412043974F3120A328A0A8B0BECFE70
:104DC300EDFF8E828F83E0540CF508E0A2E75006D6
:104DD300E508D2E7F508E508D2E1F508125DB570FC
:104DE30006E508D2E4F508E0A2E55006E508D2E5B9
:104DF300F5087C087D007900AA18AB19121A5B74B8
:104E030002120C50E508124EE0C0E07403120C507D
:104E1300D0E012543EE50AF0A3E50BF07405120C42
:104E2300501263DB120E1F740C120C50E070787476
:104E330008120C50125BF012630D381267C6C0E003
:104E43007408120C50124ED4D0E0126690C0E07475
:104E530008120C50124EC8D0E0F07408120C501215
:104E630063D3124EB712547312542524111256EE03
:104E7300C0E0124EAFD0E0F0EE24141256EEC0E0C4
:104E83007408120C50125BF02435F582E438F58374
:104E9300D0E0125415C0E07408120C501253D2D053
:104EA300E01263DD120E25740D02357AE812537C8D
:104EB30039F58322125BDCE8242AF582E439F58391
:104EC300EAF0A3EB221266862427F582E438F58301
:104ED300221266862426F582E438F583221267BB04
:104EE300E02274F71204397E008A828B83A3A3A382
:104EF300A3A3A3A3A3A3E064046003024F91125CE2
:104F030071E06003024F91124F953B125C56607E35
:104F130088828983E054037075E8240C126085FA53
:104F23008C828D83A3A3E0FBA3E0CB124D143BF54E
:104F330083E06A705988828983A3A3A3A3A3124F32
:104F4300A0E06A7003A3E06B704488828983124FE8
:104F5300A0A3A312609A24061256EE6A7003A3E07C
:104F63006B702B88828983A3A3E0F88C828D83A343
:104F7300A3E0F9A3E0F5838982A3A3E068600D8C25
:104F8300828D8312589B540C640470027E01EEF9E7
:104F9300801AEA124F9A22240FF582E422A3A3A3D4
:104FA300A3125BE28C828D83221209687F010207C0
:104FB3001374F612043974FC120A32EAFEEBFFECA6
:104FC300FAEDFB8A828B83A3E05403601690032CD3
:104FD300125C5860597900EEFCEFFD127657120609
:104FE3002D804B851882851983EEF0A3EFF07402B0
:104FF300120C5012547CAC18AD197A837B0D120F2E
:105003007B8A088B09A808A909E849602188828955
:1050130083A3A3A3A3A3A3A3A3A37406F07A0088E3
:10502300828983125BF012661CE0F9120EE57404A8
:10503300024DAB74F212043974F3120A32EAFEEB36
:10504300FF8E828F83A3A3A3A3A3A3A3A3A3A3E0FE
:10505300F50A901248E0700579BA02537775080192
:10506300750900750C00750D007C087D007900AA98
:1050730018AB19121A5B7405120C507401125451B7
:10508300540460127402120C50E0D2E612545154CC
:10509300087003750803E05410600674404508F572
:1050A30008E0540860227402120C50E044C0125409
:1050B300515420600A7403120C50E0D2E08008744B
:1050C30003120C50E0D2E1F0EE24151256EE125307
:1050D300BA7003740169700674084508F5088E8276
:1050E3008F83A3A3A3A3A3A3A3A3E07016120FCF3D
:1050F30085188285198312547C7402120C50E0D2F5
:10510300E2802C640F70107402120C501254597404
:10511300044508F508807B8E828F83A3A3A3A3A3F2
:10512300A3A3A3E064028E828F83700612333DF043
:105133008060A3A3A3A3A3A3A3A3E06403700DAC04
:1051430018AD19EEFAEFFB120DB980468E828F83EC
:10515300A3A3A3A3A3A3A3A3E0640170359003B601
:10516300E060107402120C50125459750910750A3C
:10517300FF80187402120C50E0440C12543E74FD6C
:10518300F0A374FFF074044508F5088E828F831230
:1051930053C6EE24151256EEA2E0503F7402120CD1
:1051A30050E0540C701B8E828F83125BD812210F38
:1051B300E9700579BB0253777402120C50E0D2E513
:1051C300F0EE24151256EEA2E050107402120C50A9
:1051D300E0540C64047004E0D2E5F0EE241112569E
:1051E300EEC0E07404120C50D0E01263DD120E1F07
:1051F300740C120C50E060030253707408120C50CC
:105203001253EEE508F0A3E509F0EE24181256EE6A
:10521300C0E012539ED0E01253FFE0C0E0740812C6
:105223000C50125BF0124D0E38F583D0E01254731C
:10523300640170119003B6E0C0E07408120C5012C0
:1052430053DED0E0F07408120C501253FA241712F4
:105253003E9CE8125395EA125439EE2415FAE43FC2
:10526300FB8A828B83123F7EE812538CECF0A3ED12
:1052730012540AE0C0E0125382D0E012544A12538F
:10528300BA700374016970137408120C50125C3AFB
:10529300FAEE241D1256EEF91223018E828F83A398
:1052A300A3A3A3A3A3A3A3A3E0C0E07408120C5079
:1052B300124ED4D0E0F07408120C50124EC8E50A16
:1052C300F07408120C50125AE42428F582E439F5DC
:1052D30083E50CF0A3E50D12541DFAA3E0FBE824CB
:1052E3002A12542C240F1256EE1254252417125648
:1052F300EEC0E0E82433F582E439F583D0E0F01220
:1053030053A8C0E07408120C501253D2D0E0F0EE50
:10531300241A1256EEC0E07408120C50125BF012FD
:10532300537C38F583D0E0125415122C6A1209A26B
:1053330012699B123F7E740B120C50126763FAA31F
:10534300E0FB121A4F7403120968EE24151256EE8D
:1053530054406012900346125C58600AAA18AB19B5
:1053630012765712062DAA18AB19120E25740C12B9
:105373000C50E0F9740D022CCD2432F582E422E8BE
:105383002420F582E439F58322241EF582E439F5DD
:105393008322241CF582E439F58322E82412F58262
:1053A300E439F58322EE241B1253B222EE240FF5C7
:1053B30082E43FF583E0225480F8A3E05401F974BA
:1053C3008068221253CA22E0F50CA3E0F50D2212E5
:1053D30066862434F582E438F583221266861253F6
:1053E300E838F583222415F582E422125AE8124F95
:1053F3009A39F58322F5831248ABEE22F0EE241995
:10540300F582E43FF58322F0EE241CF582E43FF5B8
:105413008322F0EE24131253B222F0EE240D125322
:10542300B222FAA3E0FBE8242CF582E439F583EAFF
:10543300F0A3EBF0EE22F0A3E4F02212544222F0A8
:1054430085188285198322F08A828B83E022F0EE0D
:1054530024151253B222E0D2E3126B3812546322A2
:10546300851882851983E8F0A3E9F022E8F0A3E91F
:10547300126670E0228E828F83EAF0A3EBF022742F
:10548300F71204397E638A828B83E0600C790512FC
:105493000EAFE9F87456C398FE90035EE0600CF912
:1054A300120EAFE9F8EEC39824F2FE024F9174F6A0
:1054B30012043974FE120A32851882851983125434
:1054C3007CE9FEECFAEDFB9004E3125C586035A82E
:1054D30018A9198808890978081209A67D01740E8C
:1054E300120C50E0FCEEF99004E312663812062D1C
:1054F30074021209688B09EA450960047900800681
:1055030079B2800279B6024DA974F7120439E9FE23
:10551300900322125C58601F7409120C50E0F508C6
:1055230078081209AAEEF990032212663812062DA2
:105533007401120968800279B6024FAF74F712043E
:10554300398908ECFEEDFF79B5E508245E601F1488
:10555300600624F86033803C9004E51249156034FA
:105563009004E512663812062D12547880249003B5
:1055730024123F7EEC4D601CEEFCEFFD90032412E1
:10558300663812062DE9F9800B9003201267771213
:105593001C297900024FAF74F7120439E9FE79B57B
:1055A30074AB6E700B900320125BD8121C29790028
:1055B300024FAF74F21204398A088B09ECFEEDFF37
:1055C300750A01900366E065087004A3E06509703D
:1055D30014120FC98A088B09AC08AD09EEFAEFFB68
:1055E300121C29802A120FD58A0C8B0DE508650C35
:1055F3007004E509650D7009EEFAEFFB120FDB800D
:105603000EEEFCEFFDAA08AB0912233DE9F50AA94A
:105613000A022CD074F2120439EAFEEBFF8C088DD7
:1056230009750A01120FC98A0C8B0DAC0CAD0DEE76
:10563300FAEFFB121C23E96401700B900366125608
:10564300591263A2800EAC08AD09EEFAEFFB1223E8
:1056530037E9F50A80B912565D22126B3F8508823D
:105663008509832274F6120439EAFEEBFF7A0D7B77
:1056730000121B21EA4B6065EE2424126B5FF0EEEF
:105683002425126B5FA3125707126B65A3A312693C
:10569300CB1256F2F0EE242A1256FB1257D0242CCA
:1056A3001256FB1257CE242EF582E43FF583125691
:1056B300F2A3A3A3A3A3F0EE24331256EEC0E01289
:1056C30056E3D0E01267CA1256FEA3A3A31257CE25
:1056D30024321256EEC0E0125C71D0E0F0024DAEFF
:1056E300EA1267533BF58322EE240C1253B222E0F5
:1056F3008A828B83A3A3A3221253B2F8A3E0F98A6D
:10570300828B8322F012570C22EE2426F582E43F8B
:10571300F5832274F412043974FE120A32ECFEED9E
:10572300FFEE24161256EE64057010EE2406FCE418
:105733003FFD120DB3E970030257C3AC18AD191244
:105743006A95122115851882851983125C58606C3D
:105753008E828F83E064017059E875F009A4F8AA7A
:10576300F075F009E9A42AF974ED28F874FF39F902
:10577300E8FAE9FB8A828B837808120BEDEE125765
:10578300C8120BAF40288518828519831253FA1269
:1057930058901257D41257C8120BED90810778080E
:1057A300120AD68A828B837808120BCF800A79A2D9
:1057B3008010EE240F12639C7900800679A1800289
:1057C30079C8023578126C30780822A3A3A3A3A367
:1057D300A3125469EE2274F01204398A088B09EC7F
:1057E300FEEDFF12588FE4F0A3F0908113780C12B2
:1057F3000BED126C2B780C120A5D7003025887EEC6
:10580300240E1256EE6401703678B390035DE07097
:105813002A90038FE064017022EE24111256EEF9F0
:10582300120E978A088B09A808A909EE240F1263A0
:105833009CE84960047800800278A1880A8048E0E7
:105843007017120DC5E9F50A603D8E828F83A3A3FD
:1058530012589B5403700E802E64027015120DC5EE
:10586300E9F50A6022EEFCEFFDAA08AB0912213923
:105873008008E064037008120DC5E9F50A80087515
:105883000AA18003750AA3A90A0240E4EE124F9A03
:105893003FF583228A828B83A3A31264092274F0C7
:1058A30012043974F5120A32EAFEEBFFEE240AF50C
:1058B30008E43F850882F583125AD4125AA8740368
:1058C300120A148E828F83125BD8120DB3E9700310
:1058D3000259907401120A147403120A0C1221154E
:1058E3007401120C50125C587003025990E875F061
:1058F30009A4F8AAF075F009E9A42AF974E928F8CB
:1059030074FF39F9E8FCE9FD126E59E4F004120C56
:10591300501248A7E508124F9635091263A08C82EE
:105923008D83120C15125AB4120C09908107780852
:10593300120BED8C828D837808120B488C828D8339
:105943007808120BED908147780C120BED780879EB
:105953000C1203CAE50C450D450E450F702F74015B
:10596300120C50125AE475F009A4F8AAF075F00964
:10597300E9A42AF974F128F58274FF39F5837401D7
:10598300F07A007B089010F5E0F9121AB5125ABCB0
:10599300E02406FCA3E03400FD8E828F83125BD8E3
:1059A300120DB3850882850983125C4D7052125C17
:1059B3000E121C23E9701D120FC98A088B09AC084B
:1059C300AD09900320125BD8121C23E97006120E56
:1059D30037E9602C8E828F83123F748E828F8312FD
:1059E3005BD812213FE960138E828F83A3A3125BDE
:1059F300E8124F9638F583E4F0A3F0125EC4E4F0A6
:105A0300125C3F6003025A9B8E828F83A3A3A3A3DE
:105A1300A3A3125AD090035DE0707290038FE064E9
:105A230001706A750A3A750B00780A1209A67402A6
:105A3300120A04880A890B780A1209A67C017D00E0
:105A43007A007B001210EF7404120968E9703B12AC
:105A53006E59740112543EE0C0E0E5082411126E41
:105A6300B5D0E0F0125AA0743A1254399003481298
:105A73000C15125AB4120C099081077808120BED19
:105A83009003487808120B488003125AA8125C3F0F
:105A9300700612620174A1F0740B0240E1E5082460
:105AA3000F1242E722E508240F1242E7E4F0A3F0C5
:105AB30022E50824121242E722EE240A125AC7886A
:105AC30082F58322F8E43FF98808890922A3A3A376
:105AD300A3125AD822E0F508A3E0F509228C828D9F
:105AE30083125AE822126B3FE82274F6120439EA51
:105AF300FEEBFFEE240A125AC77A187B00121B2111
:105B0300850882850983EAF0A3EB125C6CE849708F
:105B130003025BAEEEFAEFFB120DD1125C3F607431
:105B2300125C2C64018E828F83A3A3A3A3A3A3700F
